{
  "_format": "hh-sol-artifact-1",
  "contractName": "IDOPool",
  "sourceName": "contracts/IDOPool.sol",
  "abi": [
    {
      "inputs": [
        {
          "internalType": "address",
          "name": "_owner",
          "type": "address"
        },
        {
          "internalType": "address",
          "name": "_tokenAddress",
          "type": "address"
        },
        {
          "internalType": "uint256",
          "name": "_tokenPrice",
          "type": "uint256"
        },
        {
          "internalType": "uint256",
          "name": "_hardCap",
          "type": "uint256"
        },
        {
          "internalType": "uint256",
          "name": "_softCap",
          "type": "uint256"
        },
        {
          "internalType": "uint256",
          "name": "_minContribution",
          "type": "uint256"
        },
        {
          "internalType": "uint256",
          "name": "_maxContribution",
          "type": "uint256"
        },
        {
          "internalType": "uint256",
          "name": "_startTime",
          "type": "uint256"
        },
        {
          "internalType": "uint256",
          "name": "_endTime",
          "type": "uint256"
        },
        {
          "internalType": "uint8",
          "name": "_liquidityPercentage",
          "type": "uint8"
        },
        {
          "internalType": "uint256",
          "name": "_liquidityLockTime",
          "type": "uint256"
        }
      ],
      "stateMutability": "nonpayable",
      "type": "constructor"
    },
    {
      "anonymous": false,
      "inputs": [
        {
          "indexed": true,
          "internalType": "address",
          "name": "user",
          "type": "address"
        },
        {
          "indexed": false,
          "internalType": "uint256",
          "name": "amount",
          "type": "uint256"
        }
      ],
      "name": "Contributed",
      "type": "event"
    },
    {
      "anonymous": false,
      "inputs": [
        {
          "indexed": false,
          "internalType": "enum IDOPool.PoolStatus",
          "name": "status",
          "type": "uint8"
        }
      ],
      "name": "PoolStatusChanged",
      "type": "event"
    },
    {
      "anonymous": false,
      "inputs": [
        {
          "indexed": true,
          "internalType": "address",
          "name": "user",
          "type": "address"
        },
        {
          "indexed": false,
          "internalType": "uint256",
          "name": "amount",
          "type": "uint256"
        }
      ],
      "name": "TokensClaimed",
      "type": "event"
    },
    {
      "inputs": [],
      "name": "cancelPool",
      "outputs": [],
      "stateMutability": "nonpayable",
      "type": "function"
    },
    {
      "inputs": [],
      "name": "claimRefund",
      "outputs": [],
      "stateMutability": "nonpayable",
      "type": "function"
    },
    {
      "inputs": [],
      "name": "claimTokens",
      "outputs": [],
      "stateMutability": "nonpayable",
      "type": "function"
    },
    {
      "inputs": [],
      "name": "contribute",
      "outputs": [],
      "stateMutability": "payable",
      "type": "function"
    },
    {
      "inputs": [
        {
          "internalType": "address",
          "name": "",
          "type": "address"
        }
      ],
      "name": "contributions",
      "outputs": [
        {
          "internalType": "uint256",
          "name": "",
          "type": "uint256"
        }
      ],
      "stateMutability": "view",
      "type": "function"
    },
    {
      "inputs": [],
      "name": "endTime",
      "outputs": [
        {
          "internalType": "uint256",
          "name": "",
          "type": "uint256"
        }
      ],
      "stateMutability": "view",
      "type": "function"
    },
    {
      "inputs": [],
      "name": "factory",
      "outputs": [
        {
          "internalType": "address",
          "name": "",
          "type": "address"
        }
      ],
      "stateMutability": "view",
      "type": "function"
    },
    {
      "inputs": [],
      "name": "finishPool",
      "outputs": [],
      "stateMutability": "nonpayable",
      "type": "function"
    },
    {
      "inputs": [],
      "name": "getTokenPrice",
      "outputs": [
        {
          "internalType": "uint256",
          "name": "",
          "type": "uint256"
        }
      ],
      "stateMutability": "view",
      "type": "function"
    },
    {
      "inputs": [
        {
          "internalType": "address",
          "name": "_user",
          "type": "address"
        }
      ],
      "name": "getUserContribution",
      "outputs": [
        {
          "internalType": "uint256",
          "name": "",
          "type": "uint256"
        }
      ],
      "stateMutability": "view",
      "type": "function"
    },
    {
      "inputs": [],
      "name": "hardCap",
      "outputs": [
        {
          "internalType": "uint256",
          "name": "",
          "type": "uint256"
        }
      ],
      "stateMutability": "view",
      "type": "function"
    },
    {
      "inputs": [
        {
          "internalType": "address",
          "name": "",
          "type": "address"
        }
      ],
      "name": "hasClaimedTokens",
      "outputs": [
        {
          "internalType": "bool",
          "name": "",
          "type": "bool"
        }
      ],
      "stateMutability": "view",
      "type": "function"
    },
    {
      "inputs": [],
      "name": "liquidityLockTime",
      "outputs": [
        {
          "internalType": "uint256",
          "name": "",
          "type": "uint256"
        }
      ],
      "stateMutability": "view",
      "type": "function"
    },
    {
      "inputs": [],
      "name": "liquidityPercentage",
      "outputs": [
        {
          "internalType": "uint8",
          "name": "",
          "type": "uint8"
        }
      ],
      "stateMutability": "view",
      "type": "function"
    },
    {
      "inputs": [],
      "name": "maxContribution",
      "outputs": [
        {
          "internalType": "uint256",
          "name": "",
          "type": "uint256"
        }
      ],
      "stateMutability": "view",
      "type": "function"
    },
    {
      "inputs": [],
      "name": "minContribution",
      "outputs": [
        {
          "internalType": "uint256",
          "name": "",
          "type": "uint256"
        }
      ],
      "stateMutability": "view",
      "type": "function"
    },
    {
      "inputs": [],
      "name": "owner",
      "outputs": [
        {
          "internalType": "address",
          "name": "",
          "type": "address"
        }
      ],
      "stateMutability": "view",
      "type": "function"
    },
    {
      "inputs": [],
      "name": "softCap",
      "outputs": [
        {
          "internalType": "uint256",
          "name": "",
          "type": "uint256"
        }
      ],
      "stateMutability": "view",
      "type": "function"
    },
    {
      "inputs": [],
      "name": "startPool",
      "outputs": [],
      "stateMutability": "nonpayable",
      "type": "function"
    },
    {
      "inputs": [],
      "name": "startTime",
      "outputs": [
        {
          "internalType": "uint256",
          "name": "",
          "type": "uint256"
        }
      ],
      "stateMutability": "view",
      "type": "function"
    },
    {
      "inputs": [],
      "name": "status",
      "outputs": [
        {
          "internalType": "enum IDOPool.PoolStatus",
          "name": "",
          "type": "uint8"
        }
      ],
      "stateMutability": "view",
      "type": "function"
    },
    {
      "inputs": [],
      "name": "token",
      "outputs": [
        {
          "internalType": "contract IERC20",
          "name": "",
          "type": "address"
        }
      ],
      "stateMutability": "view",
      "type": "function"
    },
    {
      "inputs": [],
      "name": "tokenPrice",
      "outputs": [
        {
          "internalType": "uint256",
          "name": "",
          "type": "uint256"
        }
      ],
      "stateMutability": "view",
      "type": "function"
    },
    {
      "inputs": [],
      "name": "totalRaised",
      "outputs": [
        {
          "internalType": "uint256",
          "name": "",
          "type": "uint256"
        }
      ],
      "stateMutability": "view",
      "type": "function"
    },
    {
      "inputs": [],
      "name": "totalTokensSold",
      "outputs": [
        {
          "internalType": "uint256",
          "name": "",
          "type": "uint256"
        }
      ],
      "stateMutability": "view",
      "type": "function"
    }
  ],
  "bytecode": "0x608060405234801561001057600080fd5b5060405161103938038061103983398101604081905261002f916100c8565b600080546001600160a01b03199081163317909155600180546001600160a01b039d8e16908316179055600280549b909c169a1699909917909955600396909655600494909455600592909255600655600755600855600955600a805460ff9390931660ff19938416179055600b55600c80549091169055610196565b80516001600160a01b03811681146100c357600080fd5b919050565b60008060008060008060008060008060006101608c8e0312156100ea57600080fd5b6100f38c6100ac565b9a5061010160208d016100ac565b9950600060408d0151905080995050600060608d0151905080985050600060808d0151905080975050600060a08d0151905080965050600060c08d0151905080955050600060e08d015190508094505060006101008d01519050809350506101208c015160ff8116811461017457600080fd5b8092505060006101408d01519050809150509295989b509295989b9093969950565b610e94806101a56000396000f3fe6080604052600436106101665760003560e01c80638d3d6576116100d1578063c45a01551161008a578063ed613ac111610064578063ed613ac1146103c5578063fa08c90814610405578063fb86a4041461041a578063fc0c546a1461043057600080fd5b8063c45a015514610387578063c5c4744c146103a7578063d7bb99ba146103bd57600080fd5b80638d3d6576146102c25780638da5cb5b146102d8578063906a26e014610310578063aaffadf314610326578063b5545a3c1461033c578063bb8b2b471461035157600080fd5b806348de0f401161012357806348de0f40146102405780634b94f50e1461025657806363b201171461026b57806378e97925146102815780637ff9b59614610297578063821e0418146102ad57600080fd5b8063048b87ba1461016b5780631b55b2a81461019c578063200d2ed2146101b35780633197cbb6146101da57806342e94c90146101fe57806348c54b9d1461022b575b600080fd5b34801561017757600080fd5b50600a546101859060ff1681565b60405160ff90911681526020015b60405180910390f35b3480156101a857600080fd5b506101b1610450565b005b3480156101bf57600080fd5b50600c546101cd9060ff1681565b6040516101939190610d41565b3480156101e657600080fd5b506101f060095481565b604051908152602001610193565b34801561020a57600080fd5b506101f0610219366004610d69565b600f6020526000908152604090205481565b34801561023757600080fd5b506101b1610557565b34801561024c57600080fd5b506101f0600b5481565b34801561026257600080fd5b506003546101f0565b34801561027757600080fd5b506101f0600e5481565b34801561028d57600080fd5b506101f060085481565b3480156102a357600080fd5b506101f060035481565b3480156102b957600080fd5b506101b1610761565b3480156102ce57600080fd5b506101f060075481565b3480156102e457600080fd5b506001546102f8906001600160a01b031681565b6040516001600160a01b039091168152602001610193565b34801561031c57600080fd5b506101f060055481565b34801561033257600080fd5b506101f060065481565b34801561034857600080fd5b506101b16108c9565b34801561035d57600080fd5b506101f061036c366004610d69565b6001600160a01b03166000908152600f602052604090205490565b34801561039357600080fd5b506000546102f8906001600160a01b031681565b3480156103b357600080fd5b506101f0600d5481565b6101b16109b4565b3480156103d157600080fd5b506103f56103e0366004610d69565b60106020526000908152604090205460ff1681565b6040519015158152602001610193565b34801561041157600080fd5b506101b1610c1f565b34801561042657600080fd5b506101f060045481565b34801561043c57600080fd5b506002546102f8906001600160a01b031681565b6000546001600160a01b031633148061047357506001546001600160a01b031633145b6104985760405162461bcd60e51b815260040161048f90610d99565b60405180910390fd5b6000600c5460ff1660048111156104b1576104b1610d2b565b14806104d357506001600c5460ff1660048111156104d1576104d1610d2b565b145b61050f5760405162461bcd60e51b815260206004820152600d60248201526c10d85b9b9bdd0818d85b98d95b609a1b604482015260640161048f565b600c805460ff191660039081179091556040517fe2331ea4aa77bd9050f22ec79661d3d41e161cd0fc67a06e3679fedf8a3a1cfa9161054d91610d41565b60405180910390a1565b6002600c5460ff16600481111561057057610570610d2b565b146105b25760405162461bcd60e51b8152602060048201526012602482015271141bdbdb081b9bdd0818dbdb5c1b195d195960721b604482015260640161048f565b336000908152600f60205260409020546106005760405162461bcd60e51b815260206004820152600f60248201526e27379031b7b73a3934b13aba34b7b760891b604482015260640161048f565b3360009081526010602052604090205460ff16156106525760405162461bcd60e51b815260206004820152600f60248201526e105b1c9958591e4818db185a5b5959608a1b604482015260640161048f565b600354336000908152600f602052604081205490919061067a90670de0b6b3a7640000610dd7565b6106849190610df4565b3360008181526010602052604090819020805460ff19166001179055600254905163a9059cbb60e01b81529293506001600160a01b03169163a9059cbb916106e49185906004016001600160a01b03929092168252602082015260400190565b6020604051808303816000875af1158015610703573d6000803e3d6000fd5b505050506040513d601f19601f820116820180604052508101906107279190610e16565b5060405181815233907f896e034966eaaf1adc54acc0f257056febbd300c9e47182cf761982cf1f5e430906020015b60405180910390a250565b6000546001600160a01b031633148061078457506001546001600160a01b031633145b6107a05760405162461bcd60e51b815260040161048f90610d99565b6009544211806107b45750600454600d5410155b6107f45760405162461bcd60e51b8152602060048201526011602482015270506f6f6c207374696c6c2061637469766560781b604482015260640161048f565b600554600d541061088457600c805460ff19166002179055600a54600d546000916064916108259160ff1690610dd7565b61082f9190610df4565b9050600081600d546108419190610e38565b6001546040519192506001600160a01b03169082156108fc029083906000818181858888f1935050505015801561087c573d6000803e3d6000fd5b505050610892565b600c805460ff191660041790555b600c546040517fe2331ea4aa77bd9050f22ec79661d3d41e161cd0fc67a06e3679fedf8a3a1cfa9161054d9160ff90911690610d41565b6004600c5460ff1660048111156108e2576108e2610d2b565b146109215760405162461bcd60e51b815260206004820152600f60248201526e141bdbdb081b9bdd0819985a5b1959608a1b604482015260640161048f565b336000908152600f602052604090205461096f5760405162461bcd60e51b815260206004820152600f60248201526e27379031b7b73a3934b13aba34b7b760891b604482015260640161048f565b336000818152600f6020526040808220805490839055905190929183156108fc02918491818181858888f193505050501580156109b0573d6000803e3d6000fd5b5050565b60085442101580156109c857506009544211155b610a065760405162461bcd60e51b815260206004820152600f60248201526e506f6f6c206e6f742061637469766560881b604482015260640161048f565b6001600c5460ff166004811115610a1f57610a1f610d2b565b14610a6c5760405162461bcd60e51b815260206004820152601960248201527f506f6f6c206e6f7420696e206163746976652073746174757300000000000000604482015260640161048f565b600654341015610ab75760405162461bcd60e51b81526020600482015260166024820152752132b637bb9036b4b71031b7b73a3934b13aba34b7b760511b604482015260640161048f565b600754336000908152600f6020526040902054610ad5903490610e4b565b1115610b235760405162461bcd60e51b815260206004820152601860248201527f45786365656473206d617820636f6e747269627574696f6e0000000000000000604482015260640161048f565b60045434600d54610b349190610e4b565b1115610b755760405162461bcd60e51b815260206004820152601060248201526f12185c990818d85c081c995858da195960821b604482015260640161048f565b336000908152600f602052604081208054349290610b94908490610e4b565b9250508190555034600d6000828254610bad9190610e4b565b9091555050600354600090610bca34670de0b6b3a7640000610dd7565b610bd49190610df4565b905080600e6000828254610be89190610e4b565b909155505060405134815233907f62722348256371b5147820d6cad90c40fd2da1ccee18c3ed52c0bca5a61dbbab90602001610756565b6001546001600160a01b03163314610c495760405162461bcd60e51b815260040161048f90610d99565b6000600c5460ff166004811115610c6257610c62610d2b565b14610ca25760405162461bcd60e51b815260206004820152601060248201526f506f6f6c206e6f742070656e64696e6760801b604482015260640161048f565b600854421015610ced5760405162461bcd60e51b815260206004820152601660248201527514dd185c9d081d1a5b59481b9bdd081c995858da195960521b604482015260640161048f565b600c805460ff191660019081179091556040517fe2331ea4aa77bd9050f22ec79661d3d41e161cd0fc67a06e3679fedf8a3a1cfa9161054d91610d41565b634e487b7160e01b600052602160045260246000fd5b6020810160058310610d6357634e487b7160e01b600052602160045260246000fd5b91905290565b600060208284031215610d7b57600080fd5b81356001600160a01b0381168114610d9257600080fd5b9392505050565b6020808252600e908201526d139bdd08185d5d1a1bdc9a5e995960921b604082015260600190565b634e487b7160e01b600052601160045260246000fd5b8082028115828204841417610dee57610dee610dc1565b92915050565b600082610e1157634e487b7160e01b600052601260045260246000fd5b500490565b600060208284031215610e2857600080fd5b81518015158114610d9257600080fd5b81810381811115610dee57610dee610dc1565b80820180821115610dee57610dee610dc156fea2646970667358221220e85f8a0a7b9db874ecf6a42817ab978525f0e5780b0cef0802adf04365b48c3364736f6c634300081c0033",
  "linkReferences": {},
  "deployedLinkReferences": {}
}