{
  "_format": "hh-sol-artifact-1",
  "contractName": "SimplePresale",
  "sourceName": "contracts/SimplePresale.sol",
  "abi": [
    {
      "inputs": [
        {
          "internalType": "address",
          "name": "_presaleTokenAddress",
          "type": "address"
        },
        {
          "internalType": "uint256",
          "name": "_rate",
          "type": "uint256"
        },
        {
          "internalType": "address",
          "name": "initialOwner",
          "type": "address"
        }
      ],
      "stateMutability": "nonpayable",
      "type": "constructor"
    },
    {
      "inputs": [
        {
          "internalType": "address",
          "name": "owner",
          "type": "address"
        }
      ],
      "name": "OwnableInvalidOwner",
      "type": "error"
    },
    {
      "inputs": [
        {
          "internalType": "address",
          "name": "account",
          "type": "address"
        }
      ],
      "name": "OwnableUnauthorizedAccount",
      "type": "error"
    },
    {
      "anonymous": false,
      "inputs": [
        {
          "indexed": true,
          "internalType": "address",
          "name": "owner",
          "type": "address"
        },
        {
          "indexed": false,
          "internalType": "uint256",
          "name": "nativeAmount",
          "type": "uint256"
        }
      ],
      "name": "FundsWithdrawn",
      "type": "event"
    },
    {
      "anonymous": false,
      "inputs": [
        {
          "indexed": true,
          "internalType": "address",
          "name": "previousOwner",
          "type": "address"
        },
        {
          "indexed": true,
          "internalType": "address",
          "name": "newOwner",
          "type": "address"
        }
      ],
      "name": "OwnershipTransferred",
      "type": "event"
    },
    {
      "anonymous": false,
      "inputs": [
        {
          "indexed": true,
          "internalType": "address",
          "name": "tokenAddress",
          "type": "address"
        }
      ],
      "name": "PresaleTokenSet",
      "type": "event"
    },
    {
      "anonymous": false,
      "inputs": [
        {
          "indexed": false,
          "internalType": "uint256",
          "name": "newRate",
          "type": "uint256"
        }
      ],
      "name": "RateSet",
      "type": "event"
    },
    {
      "anonymous": false,
      "inputs": [
        {
          "indexed": true,
          "internalType": "address",
          "name": "buyer",
          "type": "address"
        },
        {
          "indexed": false,
          "internalType": "uint256",
          "name": "amountNative",
          "type": "uint256"
        },
        {
          "indexed": false,
          "internalType": "uint256",
          "name": "tokensReceived",
          "type": "uint256"
        }
      ],
      "name": "TokensPurchased",
      "type": "event"
    },
    {
      "anonymous": false,
      "inputs": [
        {
          "indexed": true,
          "internalType": "address",
          "name": "owner",
          "type": "address"
        },
        {
          "indexed": false,
          "internalType": "uint256",
          "name": "tokenAmount",
          "type": "uint256"
        }
      ],
      "name": "TokensWithdrawn",
      "type": "event"
    },
    {
      "inputs": [],
      "name": "buyTokensWithNative",
      "outputs": [],
      "stateMutability": "payable",
      "type": "function"
    },
    {
      "inputs": [],
      "name": "owner",
      "outputs": [
        {
          "internalType": "address",
          "name": "",
          "type": "address"
        }
      ],
      "stateMutability": "view",
      "type": "function"
    },
    {
      "inputs": [],
      "name": "presaleToken",
      "outputs": [
        {
          "internalType": "contract IERC20",
          "name": "",
          "type": "address"
        }
      ],
      "stateMutability": "view",
      "type": "function"
    },
    {
      "inputs": [],
      "name": "rate",
      "outputs": [
        {
          "internalType": "uint256",
          "name": "",
          "type": "uint256"
        }
      ],
      "stateMutability": "view",
      "type": "function"
    },
    {
      "inputs": [],
      "name": "renounceOwnership",
      "outputs": [],
      "stateMutability": "nonpayable",
      "type": "function"
    },
    {
      "inputs": [
        {
          "internalType": "address",
          "name": "_presaleTokenAddress",
          "type": "address"
        }
      ],
      "name": "setPresaleToken",
      "outputs": [],
      "stateMutability": "nonpayable",
      "type": "function"
    },
    {
      "inputs": [
        {
          "internalType": "uint256",
          "name": "_newRate",
          "type": "uint256"
        }
      ],
      "name": "setRate",
      "outputs": [],
      "stateMutability": "nonpayable",
      "type": "function"
    },
    {
      "inputs": [
        {
          "internalType": "address",
          "name": "newOwner",
          "type": "address"
        }
      ],
      "name": "transferOwnership",
      "outputs": [],
      "stateMutability": "nonpayable",
      "type": "function"
    },
    {
      "inputs": [],
      "name": "withdrawNativeFunds",
      "outputs": [],
      "stateMutability": "nonpayable",
      "type": "function"
    },
    {
      "inputs": [],
      "name": "withdrawPresaleTokens",
      "outputs": [],
      "stateMutability": "nonpayable",
      "type": "function"
    },
    {
      "stateMutability": "payable",
      "type": "receive"
    }
  ],
  "bytecode": "0x608060405234801561001057600080fd5b50604051610b0d380380610b0d83398101604081905261002f916101a5565b806001600160a01b03811661005f57604051631e4fbdf760e01b8152600060048201526024015b60405180910390fd5b61006881610139565b506001600160a01b0383166100bf5760405162461bcd60e51b815260206004820152601d60248201527f496e76616c69642070726573616c6520746f6b656e20616464726573730000006044820152606401610056565b6000821161010f5760405162461bcd60e51b815260206004820152601b60248201527f52617465206d7573742062652067726561746572207468616e203000000000006044820152606401610056565b50600180546001600160a01b0319166001600160a01b0393909316929092179091556002556101e1565b600080546001600160a01b038381166001600160a01b0319831681178455604051919092169283917f8be0079c531659141344cd1fd0a4f28419497f9722a3daafe3b4186f6b6457e09190a35050565b80516001600160a01b03811681146101a057600080fd5b919050565b6000806000606084860312156101ba57600080fd5b6101c384610189565b9250602084015191506101d860408501610189565b90509250925092565b61091d806101f06000396000f3fe6080604052600436106100955760003560e01c806368fea5631161005957806368fea5631461015f578063715018a6146101745780638da5cb5b14610189578063e727fbdb146101a7578063f2fde38b146101af57600080fd5b806324ffea1a146100a9578063255412fb146100e65780632c4e722e146100fb57806334fcf4371461011f5780634df3cce41461013f57600080fd5b366100a4576100a26101cf565b005b600080fd5b3480156100b557600080fd5b506001546100c9906001600160a01b031681565b6040516001600160a01b0390911681526020015b60405180910390f35b3480156100f257600080fd5b506100a26103b6565b34801561010757600080fd5b5061011160025481565b6040519081526020016100dd565b34801561012b57600080fd5b506100a261013a366004610838565b61048c565b34801561014b57600080fd5b506100a261015a366004610851565b61051f565b34801561016b57600080fd5b506100a26105c7565b34801561018057600080fd5b506100a2610769565b34801561019557600080fd5b506000546001600160a01b03166100c9565b6100a26101cf565b3480156101bb57600080fd5b506100a26101ca366004610851565b61077d565b600034116102245760405162461bcd60e51b815260206004820152601960248201527f4d7573742073656e64206e61746976652063757272656e63790000000000000060448201526064015b60405180910390fd5b6000600254346102349190610881565b6001546040516370a0823160e01b815230600482015291925082916001600160a01b03909116906370a0823190602401602060405180830381865afa158015610281573d6000803e3d6000fd5b505050506040513d601f19601f820116820180604052508101906102a591906108ac565b10156103015760405162461bcd60e51b815260206004820152602560248201527f4e6f7420656e6f7567682070726573616c6520746f6b656e7320696e20636f6e6044820152641d1c9858dd60da1b606482015260840161021b565b60015460405163a9059cbb60e01b8152336004820152602481018390526001600160a01b039091169063a9059cbb906044016020604051808303816000875af1158015610352573d6000803e3d6000fd5b505050506040513d601f19601f8201168201806040525081019061037691906108c5565b50604080513481526020810183905233917f8fafebcaf9d154343dad25669bfa277f4fbacd7ac6b0c4fed522580e040a0f3391015b60405180910390a250565b6103be6107bb565b478061040c5760405162461bcd60e51b815260206004820152601b60248201527f4e6f206e61746976652066756e647320746f2077697468647261770000000000604482015260640161021b565b600080546040516001600160a01b039091169183156108fc02918491818181858888f19350505050158015610445573d6000803e3d6000fd5b506000546001600160a01b03166001600160a01b03167feaff4b37086828766ad3268786972c0cd24259d4c87a80f9d3963a3c3d999b0d826040516103ab91815260200190565b6104946107bb565b600081116104e45760405162461bcd60e51b815260206004820152601b60248201527f52617465206d7573742062652067726561746572207468616e20300000000000604482015260640161021b565b60028190556040518181527faaeb483bfbd8cfd510c2bf9558f92d3b588e733adf62f05e2e3de2486d13279d9060200160405180910390a150565b6105276107bb565b6001600160a01b03811661057d5760405162461bcd60e51b815260206004820152601d60248201527f496e76616c69642070726573616c6520746f6b656e2061646472657373000000604482015260640161021b565b600180546001600160a01b0319166001600160a01b0383169081179091556040517f03409dadb305333a626ed1510fd682ba05593338515352aad0dff77a2332fc9a90600090a250565b6105cf6107bb565b6001546040516370a0823160e01b81523060048201526000916001600160a01b0316906370a0823190602401602060405180830381865afa158015610618573d6000803e3d6000fd5b505050506040513d601f19601f8201168201806040525081019061063c91906108ac565b90506000811161068e5760405162461bcd60e51b815260206004820152601d60248201527f4e6f2070726573616c6520746f6b656e7320746f207769746864726177000000604482015260640161021b565b6001546001600160a01b031663a9059cbb6106b16000546001600160a01b031690565b6040516001600160e01b031960e084901b1681526001600160a01b039091166004820152602481018490526044016020604051808303816000875af11580156106fe573d6000803e3d6000fd5b505050506040513d601f19601f8201168201806040525081019061072291906108c5565b506000546001600160a01b03166001600160a01b03167f6352c5382c4a4578e712449ca65e83cdb392d045dfcf1cad9615189db2da244b826040516103ab91815260200190565b6107716107bb565b61077b60006107e8565b565b6107856107bb565b6001600160a01b0381166107af57604051631e4fbdf760e01b81526000600482015260240161021b565b6107b8816107e8565b50565b6000546001600160a01b0316331461077b5760405163118cdaa760e01b815233600482015260240161021b565b600080546001600160a01b038381166001600160a01b0319831681178455604051919092169283917f8be0079c531659141344cd1fd0a4f28419497f9722a3daafe3b4186f6b6457e09190a35050565b60006020828403121561084a57600080fd5b5035919050565b60006020828403121561086357600080fd5b81356001600160a01b038116811461087a57600080fd5b9392505050565b80820281158282048414176108a657634e487b7160e01b600052601160045260246000fd5b92915050565b6000602082840312156108be57600080fd5b5051919050565b6000602082840312156108d757600080fd5b8151801515811461087a57600080fdfea2646970667358221220d0b04c6ff41480210bbae134d4bf832f91e21672510ba76fac7aa6a8f3fc5f3464736f6c634300081c0033",
  "linkReferences": {},
  "deployedLinkReferences": {}
}